:020000040800F2
:100000004804002045010008E3020008DB02000864
:10001000DF0200088D010008DD0800080000000074
:10002000000000000000000000000000750400084F
:1000300091010008000000007D0300084905000848
:100040005F0100085F0100085F0100085F01000810
:100050005F0100085F0100085F0100085F01000800
:100060005F0100085F0100085F0100085F010008F0
:100070005F0100085F0100085F0100085F010008E0
:100080005F0100085F0100085F0100085F010008D0
:100090005F0100085F0100085F0100085F010008C0
:1000A0005F0100085F0100085F0100085F010008B0
:1000B0005F0100085F0100085F0100085F010008A0
:1000C0005F0100085F0100085F0100085F01000890
:1000D0005F010008AD0500085F0100085F0100082E
:1000E0005F0100085F0100085F0100085F01000870
:1000F0005F0100085F0100085F0100085F01000860
:100100005F0100085F0100085F0100085F0100084F
:100110005F0100085F0100085F0100085F0100083F
:100120005F0100085F0100085F0100085F0100082F
:10013000DFF80CD000F018F800480047010900086B
:10014000480400200648804706480047FEE7FEE7CF
:10015000FEE7FEE7FEE7FEE7FEE7FEE7FEE7FEE777
:100160004D05000831010008064C074D06E0E06827
:1001700040F0010394E8070098471034AC42F6D3EE
:10018000FFF7DAFF380900085809000800BFFEE74A
:10019000704700E0401E0028FCD1704708B50121DF
:1001A000102000F0EDF84FF40050ADF800000320EF
:1001B0008DF8020010208DF803006946014800F018
:1001C00003F808BD001001402DE9F041024600256A
:1001D0000026002000230024002791F803C00CF023
:1001E0000F0591F803C01CF0100F03D091F802C066
:1001F0004CEA0505B1F800C01CF0FF0F31D01468BF
:1002000000202BE04FF0010C0CFA00F3B1F800C015
:100210000CEA03069E4220D183004FF00F0C0CFA2B
:1002200003F7BC4305FA03FC4CEA040491F803C04D
:10023000BCF1280F06D14FF0010C0CFA00FCC2F8FB
:1002400014C00AE091F803C0BCF1480F05D14FF08B
:10025000010C0CFA00FCC2F810C0401C0828D1D3D5
:100260001460B1F800C0BCF1FF0F34DD5468002009
:100270002EE000F1080C4FF0010808FA0CF3B1F879
:1002800000C00CEA03069E4221D183004FF00F0C00
:100290000CFA03F7BC4305FA03FC4CEA040491F89A
:1002A00003C0BCF1280F05D100F1080C08FA0CF8C6
:1002B000C2F8148091F803C0BCF1480F07D100F1D7
:1002C000080C4FF0010808FA0CF8C2F81080401C26
:1002D0000828CED35460BDE8F08100BFFEE700BF20
:1002E000FEE7704770B5002100230F22C4784CB39D
:1002F0001A4C246804F4E064C4F5E0644FEA142165
:10030000C1F1040322FA01F2447804FA03F184787B
:1003100004EA020444EA01014FEA0111104C067894
:10032000A155047804F01F054FF0010404FA05F408
:1003300005784FEA65154FF0E02606EB8505C5F810
:10034000004109E0047804F01F050124AC40054D8C
:100350000678761145F8264070BD00000CED00E0EF
:1003600000E400E080E100E002490143024A11603C
:10037000704700000000FA050CED00E07047000037
:1003800029B1064A92690243044B9A6104E0034A88
:1003900092698243014B9A6170470000001002404D
:1003A00030B500210022002400232D4D6D6805F09A
:1003B0000C0121B1042905D0082923D105E0294DDC
:1003C000056022E0274D05601FE0254D6D6805F4AE
:1003D0007012234D6D6805F48034022505EB9242BE
:1003E0001CB9214D554305600BE01D4D6D6815F49A
:1003F000003F03D01C4D5543056002E0194D5543A5
:10040000056002E0174D056000BF00BF144D6D6828
:1004100005F0F0010909154D6B5C0568DD4045608C
:100420000F4D6D6805F4E061090A104D6B5C45687D
:10043000DD4085600A4D6D6805F46051C90A0B4DB9
:100440006B5C4568DD40C560054D6D6805F4404155
:10045000890B074D6B5CC568B5FBF3F5056130BDD5
:100460000010024000127A0000093D001400002034
:1004700024000020704710B500F002F810BD000005
:10048000002100202E4A126842F480322C4B1A6060
:1004900000BF2B4A126802F40030491C10B9B1F5B4
:1004A000A06FF6D1264A126812F4003F01D0012055
:1004B00000E00020012842D1224A126842F01002D6
:1004C000204B1A601A46126822F003021A601A467C
:1004D000126842F002021A60194A5268184B5A60B8
:1004E0001A4652685A601A46526842F480625A604C
:1004F0001A46526822F47C125A601A46526842F434
:10050000E8125A601A46126842F080721A6000BF00
:100510000B4A126812F0007FFAD0094A526822F0A2
:100520000302074B5A601A46526842F002025A60B0
:1005300000BF034A526802F00C02082AF9D1704742
:1005400000100240002002407047000010B5134820
:10055000006840F0010011490860084640681049F1
:1005600008400E494860084600680E4908400B499B
:1005700008600846006820F480200860084640684B
:1005800020F4FE0048604FF41F008860FFF773FFFF
:100590004FF000600449086010BD000000100240E8
:1005A0000000FFF8FFFFF6FE08ED00E010B540F296
:1005B0002551284800F075F8012849D1254800F058
:1005C0002BF9254908602548006838B908460068B5
:1005D000FF2838D101202149086034E01F48006815
:1005E000012822D11C4800681D491E4A126841F8A2
:1005F00022001C480068401C1A4908600846006830
:10060000042801DD012000E00020164909680429C2
:1006100001D1012100E00021084314D0002011493C
:10062000086002200D4908600DE00C4800680228AF
:1006300009D109480068FE2805D101200A4908604F
:1006400000200649086040F22551024800F00EF8EB
:1006500010BD000000380140080000200400002008
:10066000280000200C0000200000002010B500220F
:100670000023A1F510646A3C00D100BF0A120124D6
:100680009440A3B2DC43048010BD21B1828942F4BE
:100690000052828104E082894DF6FF731A40828104
:1006A000704770B502460024002300250020A1F504
:1006B00010666A3E00D100BFC1F3421501F01F036E
:1006C000012606FA03F3012D02D19689334006E094
:1006D000022D02D1168A334001E0968A33400C1273
:1006E000012606FA04F41688344013B10CB1012037
:1006F00000E0002070BDF0B5034600240026002570
:100700000020A1F510676A3F00D100BF1846C1F371
:10071000421401F01F06012707FA06F5012C01D14A
:100720000C3004E0022C01D1103000E014301AB17A
:1007300007682F43076002E00768AF430760F0BD1A
:100740002DE9F04786B005460E460024A24600BFBC
:10075000A1460027B08900B100BF2F462C8A4CF675
:10076000FF700440F08804432C82AC894EF6F310ED
:100770000440B08831890843718908430443AC813F
:10078000AC8A4FF6FF400440B0890443AC8201A814
:10079000FFF706FE1F48874202D1DDF810A001E0F6
:1007A000DDF80CA0A88910F4004F08D00AEBCA00AD
:1007B00000EB0A1031684900B0FBF1F807E00AEBE2
:1007C000CA0000EB0A1031688900B0FBF1F8642020
:1007D000B8FBF0F004012009642101FB1089A8890D
:1007E00010F4004F08D0322000EBC900B0FBF1F04C
:1007F00000F00700044308E0322000EB09106421F8
:10080000B0FBF1F000F00F0004432C8106B0BDE80E
:10081000F08700000038014001468888C0F30800D6
:100820007047000010B586B0044601210420FFF790
:10083000A7FD01218803FFF7A3FD18208DF81700FD
:100840004FF40070ADF8140003208DF8160005A9D0
:100850001F48FFF7B9FC48208DF8170003208DF8DA
:1008600016004FF48060ADF8140005A91848FFF792
:10087000ABFC01940020ADF80800ADF80A00ADF81B
:100880000C00ADF810000C20ADF80E0001A91148C5
:10089000FFF756FF012240F225510E48FFF72BFFCC
:1008A0004FF4A060FFF760FD25200B490870012080
:1008B000C870487088700846FFF714FD01A9054804
:1008C000FFF73EFF01210348FFF7DFFE06B010BD32
:1008D00000080140003801401000002000BFFEE782
:1008E00002E008C8121F08C1002AFAD170477047F9
:1008F000002001E001C1121F002AFBD17047000057
:10090000FFF74CFC4FF41650FFF78CFF0CE0012072
:10091000064908600648FFF73CFC00200549C1F87D
:10092000B4010348FFF735FCF1E70000B4012242AF
:10093000FFFF0F00000022425809000800000020BD
:1009400028000000E00800088009000828000020B6
:1009500020040000F0080008000000000000000073
:100960000000000000000000000000000000000087
:100970000102030401020304060708090204060831
:0400000508000131BD
:00000001FF
